{
  "_format": "hh-sol-artifact-1",
  "contractName": "SaveMindAction",
  "sourceName": "contracts/SaveMindAction.sol",
  "abi": [
    {
      "inputs": [],
      "stateMutability": "nonpayable",
      "type": "constructor"
    },
    {
      "anonymous": false,
      "inputs": [
        {
          "indexed": true,
          "internalType": "address",
          "name": "to",
          "type": "address"
        },
        {
          "indexed": false,
          "internalType": "uint256",
          "name": "timestamp",
          "type": "uint256"
        },
        {
          "indexed": false,
          "internalType": "uint256",
          "name": "value",
          "type": "uint256"
        },
        {
          "indexed": false,
          "internalType": "string",
          "name": "action",
          "type": "string"
        },
        {
          "indexed": false,
          "internalType": "string",
          "name": "message",
          "type": "string"
        }
      ],
      "name": "ActionSaved",
      "type": "event"
    },
    {
      "inputs": [],
      "name": "fundContract",
      "outputs": [],
      "stateMutability": "payable",
      "type": "function"
    },
    {
      "inputs": [],
      "name": "getMindActions",
      "outputs": [
        {
          "components": [
            {
              "internalType": "address",
              "name": "to",
              "type": "address"
            },
            {
              "internalType": "uint256",
              "name": "timestamp",
              "type": "uint256"
            },
            {
              "internalType": "uint256",
              "name": "value",
              "type": "uint256"
            },
            {
              "internalType": "string",
              "name": "action",
              "type": "string"
            },
            {
              "internalType": "string",
              "name": "message",
              "type": "string"
            }
          ],
          "internalType": "struct SaveMindAction.MindAction[]",
          "name": "",
          "type": "tuple[]"
        }
      ],
      "stateMutability": "view",
      "type": "function"
    },
    {
      "inputs": [
        {
          "internalType": "string",
          "name": "_action",
          "type": "string"
        },
        {
          "internalType": "string",
          "name": "_message",
          "type": "string"
        }
      ],
      "name": "saveAction",
      "outputs": [],
      "stateMutability": "payable",
      "type": "function"
    },
    {
      "stateMutability": "payable",
      "type": "receive"
    }
  ],
  "bytecode": "0x608060405234801561001057600080fd5b50600080546001600160a01b031916331790556108bd806100326000396000f3fe6080604052600436106100385760003560e01c80633190b0d5146100445780638b38274614610059578063bd097e211461008457600080fd5b3661003f57005b600080fd5b6100576100523660046105a5565b61008c565b005b34801561006557600080fd5b5061006e6102db565b60405161007b919061064f565b60405180910390f35b610057610489565b6040805160a081018252600080546001600160a01b0390811683524260208401908152670de0b6b3a76400009484018581526060850188815260808601889052600180548082018255955285517fb10e2d527612073b26eecdfd717e6a320cf44b4afac2b0732d9fcbe2b7fa0cf6600590960295860180546001600160a01b0319169190951617845591517fb10e2d527612073b26eecdfd717e6a320cf44b4afac2b0732d9fcbe2b7fa0cf7850155517fb10e2d527612073b26eecdfd717e6a320cf44b4afac2b0732d9fcbe2b7fa0cf88401555190917fb10e2d527612073b26eecdfd717e6a320cf44b4afac2b0732d9fcbe2b7fa0cf90190610190908261078b565b50608082015160048201906101a5908261078b565b505050804710156101fd5760405162461bcd60e51b815260206004820152601c60248201527f4e6f7420656e6f7567682066756e647320696e20636f6e74726163740000000060448201526064015b60405180910390fd5b604051600090339083908381818185875af1925050503d806000811461023f576040519150601f19603f3d011682016040523d82523d6000602084013e610244565b606091505b505090508061028e5760405162461bcd60e51b815260206004820152601660248201527514995dd85c99081d1c985b9cd9995c8819985a5b195960521b60448201526064016101f4565b336001600160a01b03167f50d469a8b8a7d5adcc46e0a31a8209eac75664d97a09ca5cf46f01d440fb64be428487876040516102cd949392919061084b565b60405180910390a250505050565b60606001805480602002602001604051908101604052809291908181526020016000905b828210156104805760008481526020908190206040805160a0810182526005860290920180546001600160a01b0316835260018101549383019390935260028301549082015260038201805491929160608401919061035d90610702565b80601f016020809104026020016040519081016040528092919081815260200182805461038990610702565b80156103d65780601f106103ab576101008083540402835291602001916103d6565b820191906000526020600020905b8154815290600101906020018083116103b957829003601f168201915b505050505081526020016004820180546103ef90610702565b80601f016020809104026020016040519081016040528092919081815260200182805461041b90610702565b80156104685780601f1061043d57610100808354040283529160200191610468565b820191906000526020600020905b81548152906001019060200180831161044b57829003601f168201915b505050505081525050815260200190600101906102ff565b50505050905090565b6000546001600160a01b031633146105005760405162461bcd60e51b815260206004820152603460248201527f4e6f7420617574686f72697a65642c204f6e6c7920746865206f776e65722063604482015273185b88199d5b99081d1a194818dbdb9d1c9858dd60621b60648201526084016101f4565b565b634e487b7160e01b600052604160045260246000fd5b600082601f83011261052957600080fd5b813567ffffffffffffffff8082111561054457610544610502565b604051601f8301601f19908116603f0116810190828211818310171561056c5761056c610502565b8160405283815286602085880101111561058557600080fd5b836020870160208301376000602085830101528094505050505092915050565b600080604083850312156105b857600080fd5b823567ffffffffffffffff808211156105d057600080fd5b6105dc86838701610518565b935060208501359150808211156105f257600080fd5b506105ff85828601610518565b9150509250929050565b6000815180845260005b8181101561062f57602081850181015186830182015201610613565b506000602082860101526020601f19601f83011685010191505092915050565b60006020808301818452808551808352604092508286019150828160051b87010184880160005b838110156106f457888303603f19018552815180516001600160a01b031684528781015188850152868101518785015260608082015160a082870181905291906106c283880182610609565b92505050608080830151925085820381870152506106e08183610609565b968901969450505090860190600101610676565b509098975050505050505050565b600181811c9082168061071657607f821691505b60208210810361073657634e487b7160e01b600052602260045260246000fd5b50919050565b601f82111561078657600081815260208120601f850160051c810160208610156107635750805b601f850160051c820191505b818110156107825782815560010161076f565b5050505b505050565b815167ffffffffffffffff8111156107a5576107a5610502565b6107b9816107b38454610702565b8461073c565b602080601f8311600181146107ee57600084156107d65750858301515b600019600386901b1c1916600185901b178555610782565b600085815260208120601f198616915b8281101561081d578886015182559484019460019091019084016107fe565b508582101561083b5787850151600019600388901b60f8161c191681555b5050505050600190811b01905550565b84815283602082015260806040820152600061086a6080830185610609565b828103606084015261087c8185610609565b97965050505050505056fea2646970667358221220226a682a0f3a1697be0a567eddbf3f56232c4361147e7c5f703be259728e8f9264736f6c63430008140033",
  "linkReferences": {},
  "deployedLinkReferences": {}
}